{"abi":[{"type":"constructor","inputs":[{"name":"_usdc","type":"address","internalType":"address"},{"name":"_treasury","type":"address","internalType":"address"}],"stateMutability":"nonpayable"},{"type":"function","name":"BPS_DENOMINATOR","inputs":[],"outputs":[{"name":"","type":"uint256","internalType":"uint256"}],"stateMutability":"view"},{"type":"function","name":"PLATFORM_FEE_BPS","inputs":[],"outputs":[{"name":"","type":"uint256","internalType":"uint256"}],"stateMutability":"view"},{"type":"function","name":"encodeSessionId","inputs":[{"name":"bookingId","type":"string","internalType":"string"}],"outputs":[{"name":"","type":"bytes32","internalType":"bytes32"}],"stateMutability":"pure"},{"type":"function","name":"fundSession","inputs":[{"name":"sessionId","type":"bytes32","internalType":"bytes32"},{"name":"mentor","type":"address","internalType":"address"},{"name":"amount","type":"uint256","internalType":"uint256"}],"outputs":[],"stateMutability":"nonpayable"},{"type":"function","name":"getSession","inputs":[{"name":"sessionId","type":"bytes32","internalType":"bytes32"}],"outputs":[{"name":"","type":"tuple","internalType":"struct MentorEscrow.Session","components":[{"name":"client","type":"address","internalType":"address"},{"name":"mentor","type":"address","internalType":"address"},{"name":"amount","type":"uint256","internalType":"uint256"},{"name":"createdAt","type":"uint256","internalType":"uint256"},{"name":"released","type":"bool","internalType":"bool"},{"name":"refunded","type":"bool","internalType":"bool"}]}],"stateMutability":"view"},{"type":"function","name":"owner","inputs":[],"outputs":[{"name":"","type":"address","internalType":"address"}],"stateMutability":"view"},{"type":"function","name":"refundClient","inputs":[{"name":"sessionId","type":"bytes32","internalType":"bytes32"}],"outputs":[],"stateMutability":"nonpayable"},{"type":"function","name":"releasePayment","inputs":[{"name":"sessionId","type":"bytes32","internalType":"bytes32"}],"outputs":[],"stateMutability":"nonpayable"},{"type":"function","name":"sessions","inputs":[{"name":"","type":"bytes32","internalType":"bytes32"}],"outputs":[{"name":"client","type":"address","internalType":"address"},{"name":"mentor","type":"address","internalType":"address"},{"name":"amount","type":"uint256","internalType":"uint256"},{"name":"createdAt","type":"uint256","internalType":"uint256"},{"name":"released","type":"bool","internalType":"bool"},{"name":"refunded","type":"bool","internalType":"bool"}],"stateMutability":"view"},{"type":"function","name":"setTreasury","inputs":[{"name":"_treasury","type":"address","internalType":"address"}],"outputs":[],"stateMutability":"nonpayable"},{"type":"function","name":"transferOwnership","inputs":[{"name":"newOwner","type":"address","internalType":"address"}],"outputs":[],"stateMutability":"nonpayable"},{"type":"function","name":"treasury","inputs":[],"outputs":[{"name":"","type":"address","internalType":"address"}],"stateMutability":"view"},{"type":"function","name":"usdc","inputs":[],"outputs":[{"name":"","type":"address","internalType":"contract IERC20"}],"stateMutability":"view"},{"type":"event","name":"SessionFunded","inputs":[{"name":"sessionId","type":"bytes32","indexed":true,"internalType":"bytes32"},{"name":"client","type":"address","indexed":true,"internalType":"address"},{"name":"mentor","type":"address","indexed":true,"internalType":"address"},{"name":"amount","type":"uint256","indexed":false,"internalType":"uint256"}],"anonymous":false},{"type":"event","name":"SessionRefunded","inputs":[{"name":"sessionId","type":"bytes32","indexed":true,"internalType":"bytes32"},{"name":"client","type":"address","indexed":true,"internalType":"address"},{"name":"amount","type":"uint256","indexed":false,"internalType":"uint256"}],"anonymous":false},{"type":"event","name":"SessionReleased","inputs":[{"name":"sessionId","type":"bytes32","indexed":true,"internalType":"bytes32"},{"name":"mentorAmount","type":"uint256","indexed":false,"internalType":"uint256"},{"name":"platformFee","type":"uint256","indexed":false,"internalType":"uint256"}],"anonymous":false},{"type":"event","name":"TreasuryUpdated","inputs":[{"name":"newTreasury","type":"address","indexed":false,"internalType":"address"}],"anonymous":false}],"bytecode":{"object":"0x60a060405234801561000f575f5ffd5b506040516120d73803806120d783398181016040528101906100319190610149565b8173ffffffffffffffffffffffffffffffffffffffff1660808173ffffffffffffffffffffffffffffffffffffffff1681525050805f5f6101000a81548173ffffffffffffffffffffffffffffffffffffffff021916908373ffffffffffffffffffffffffffffffffffffffff1602179055503360015f6101000a81548173ffffffffffffffffffffffffffffffffffffffff021916908373ffffffffffffffffffffffffffffffffffffffff1602179055505050610187565b5f5ffd5b5f73ffffffffffffffffffffffffffffffffffffffff82169050919050565b5f610118826100ef565b9050919050565b6101288161010e565b8114610132575f5ffd5b50565b5f815190506101438161011f565b92915050565b5f5f6040838503121561015f5761015e6100eb565b5b5f61016c85828601610135565b925050602061017d85828601610135565b9150509250929050565b608051611f1c6101bb5f395f81816103a7015281816105b10152818161097201528181610a6f0152610dad0152611f1c5ff3fe608060405234801561000f575f5ffd5b50600436106100cd575f3560e01c80637dbd28321161008a578063d651b5df11610064578063d651b5df14610202578063e1a4521814610232578063f0f4426014610250578063f2fde38b1461026c576100cd565b80637dbd2832146101935780638da5cb5b146101c8578063b1be3ed8146101e6576100cd565b806339b240bd146100d15780633e413bee14610101578063539aa77f1461011f57806361d027b31461013d57806377d931fd1461015b5780637aa1ed5814610177575b5f5ffd5b6100eb60048036038101906100e691906113c9565b610288565b6040516100f891906114de565b60405180910390f35b6101096103a5565b6040516101169190611552565b60405180910390f35b6101276103c9565b604051610134919061157a565b60405180910390f35b6101456103cf565b60405161015291906115a2565b60405180910390f35b610175600480360381019061017091906113c9565b6103f3565b005b610191600480360381019061018c91906113c9565b610728565b005b6101ad60048036038101906101a891906113c9565b610ba7565b6040516101bf969594939291906115ca565b60405180910390f35b6101d0610c36565b6040516101dd91906115a2565b60405180910390f35b61020060048036038101906101fb919061167d565b610c5b565b005b61021c6004803603810190610217919061172e565b611040565b6040516102299190611788565b60405180910390f35b61023a611072565b604051610247919061157a565b60405180910390f35b61026a600480360381019061026591906117a1565b611078565b005b610286600480360381019061028191906117a1565b6111ee565b005b61029061132e565b60025f8381526020019081526020015f206040518060c00160405290815f82015f9054906101000a900473ffffffffffffffffffffffffffffffffffffffff1673ffffffffffffffffffffffffffffffffffffffff1673ffffffffffffffffffffffffffffffffffffffff168152602001600182015f9054906101000a900473ffffffffffffffffffffffffffffffffffffffff1673ffffffffffffffffffffffffffffffffffffffff1673ffffffffffffffffffffffffffffffffffffffff1681526020016002820154815260200160038201548152602001600482015f9054906101000a900460ff161515151581526020016004820160019054906101000a900460ff1615151515815250509050919050565b7f000000000000000000000000000000000000000000000000000000000000000081565b6101f481565b5f5f9054906101000a900473ffffffffffffffffffffffffffffffffffffffff1681565b60015f9054906101000a900473ffffffffffffffffffffffffffffffffffffffff1673ffffffffffffffffffffffffffffffffffffffff163373ffffffffffffffffffffffffffffffffffffffff1614610482576040517f08c379a000000000000000000000000000000000000000000000000000000000815260040161047990611826565b60405180910390fd5b5f60025f8381526020019081526020015f2090505f73ffffffffffffffffffffffffffffffffffffffff16815f015f9054906101000a900473ffffffffffffffffffffffffffffffffffffffff1673ffffffffffffffffffffffffffffffffffffffff1603610526576040517f08c379a000000000000000000000000000000000000000000000000000000000815260040161051d9061188e565b60405180910390fd5b806004015f9054906101000a900460ff1615801561055357508060040160019054906101000a900460ff16155b610592576040517f08c379a0000000000000000000000000000000000000000000000000000000008152600401610589906118f6565b60405180910390fd5b60018160040160016101000a81548160ff0219169083151502179055507f000000000000000000000000000000000000000000000000000000000000000073ffffffffffffffffffffffffffffffffffffffff1663a9059cbb825f015f9054906101000a900473ffffffffffffffffffffffffffffffffffffffff1683600201546040518363ffffffff1660e01b8152600401610630929190611914565b6020604051808303815f875af115801561064c573d5f5f3e3d5ffd5b505050506040513d601f19601f820116820180604052508101906106709190611965565b6106af576040517f08c379a00000000000000000000000000000000000000000000000000000000081526004016106a6906119da565b60405180910390fd5b805f015f9054906101000a900473ffffffffffffffffffffffffffffffffffffffff1673ffffffffffffffffffffffffffffffffffffffff16827f28438484f265409ee150855a01cabd25d20343679e81bc214d350e682413a920836002015460405161071c919061157a565b60405180910390a35050565b5f60025f8381526020019081526020015f2090505f73ffffffffffffffffffffffffffffffffffffffff16815f015f9054906101000a900473ffffffffffffffffffffffffffffffffffffffff1673ffffffffffffffffffffffffffffffffffffffff16036107cc576040517f08c379a00000000000000000000000000000000000000000000000000000000081526004016107c39061188e565b60405180910390fd5b805f015f9054906101000a900473ffffffffffffffffffffffffffffffffffffffff1673ffffffffffffffffffffffffffffffffffffffff163373ffffffffffffffffffffffffffffffffffffffff161480610874575060015f9054906101000a900473ffffffffffffffffffffffffffffffffffffffff1673ffffffffffffffffffffffffffffffffffffffff163373ffffffffffffffffffffffffffffffffffffffff16145b6108b3576040517f08c379a00000000000000000000000000000000000000000000000000000000081526004016108aa90611a42565b60405180910390fd5b806004015f9054906101000a900460ff161580156108e057508060040160019054906101000a900460ff16155b61091f576040517f08c379a0000000000000000000000000000000000000000000000000000000008152600401610916906118f6565b60405180910390fd5b6001816004015f6101000a81548160ff0219169083151502179055505f6127106101f483600201546109519190611a8d565b61095b9190611afb565b90505f81836002015461096e9190611b2b565b90507f000000000000000000000000000000000000000000000000000000000000000073ffffffffffffffffffffffffffffffffffffffff1663a9059cbb846001015f9054906101000a900473ffffffffffffffffffffffffffffffffffffffff16836040518363ffffffff1660e01b81526004016109ee929190611914565b6020604051808303815f875af1158015610a0a573d5f5f3e3d5ffd5b505050506040513d601f19601f82011682018060405250810190610a2e9190611965565b610a6d576040517f08c379a0000000000000000000000000000000000000000000000000000000008152600401610a6490611ba8565b60405180910390fd5b7f000000000000000000000000000000000000000000000000000000000000000073ffffffffffffffffffffffffffffffffffffffff1663a9059cbb5f5f9054906101000a900473ffffffffffffffffffffffffffffffffffffffff16846040518363ffffffff1660e01b8152600401610ae8929190611914565b6020604051808303815f875af1158015610b04573d5f5f3e3d5ffd5b505050506040513d601f19601f82011682018060405250810190610b289190611965565b610b67576040517f08c379a0000000000000000000000000000000000000000000000000000000008152600401610b5e90611c10565b60405180910390fd5b837f91ea34c4482381e982e0fe4506d5bd913517853b0815ea1983cb2ffd826fd9f38284604051610b99929190611c2e565b60405180910390a250505050565b6002602052805f5260405f205f91509050805f015f9054906101000a900473ffffffffffffffffffffffffffffffffffffffff1690806001015f9054906101000a900473ffffffffffffffffffffffffffffffffffffffff1690806002015490806003015490806004015f9054906101000a900460ff16908060040160019054906101000a900460ff16905086565b60015f9054906101000a900473ffffffffffffffffffffffffffffffffffffffff1681565b5f73ffffffffffffffffffffffffffffffffffffffff1660025f8581526020019081526020015f205f015f9054906101000a900473ffffffffffffffffffffffffffffffffffffffff1673ffffffffffffffffffffffffffffffffffffffff1614610cfb576040517f08c379a0000000000000000000000000000000000000000000000000000000008152600401610cf290611c9f565b60405180910390fd5b5f73ffffffffffffffffffffffffffffffffffffffff168273ffffffffffffffffffffffffffffffffffffffff1603610d69576040517f08c379a0000000000000000000000000000000000000000000000000000000008152600401610d6090611d07565b60405180910390fd5b5f8111610dab576040517f08c379a0000000000000000000000000000000000000000000000000000000008152600401610da290611d6f565b60405180910390fd5b7f000000000000000000000000000000000000000000000000000000000000000073ffffffffffffffffffffffffffffffffffffffff166323b872dd3330846040518463ffffffff1660e01b8152600401610e0893929190611d8d565b6020604051808303815f875af1158015610e24573d5f5f3e3d5ffd5b505050506040513d601f19601f82011682018060405250810190610e489190611965565b610e87576040517f08c379a0000000000000000000000000000000000000000000000000000000008152600401610e7e90611e0c565b60405180910390fd5b6040518060c001604052803373ffffffffffffffffffffffffffffffffffffffff1681526020018373ffffffffffffffffffffffffffffffffffffffff1681526020018281526020014281526020015f151581526020015f151581525060025f8581526020019081526020015f205f820151815f015f6101000a81548173ffffffffffffffffffffffffffffffffffffffff021916908373ffffffffffffffffffffffffffffffffffffffff1602179055506020820151816001015f6101000a81548173ffffffffffffffffffffffffffffffffffffffff021916908373ffffffffffffffffffffffffffffffffffffffff16021790555060408201518160020155606082015181600301556080820151816004015f6101000a81548160ff02191690831515021790555060a08201518160040160016101000a81548160ff0219169083151502179055509050508173ffffffffffffffffffffffffffffffffffffffff163373ffffffffffffffffffffffffffffffffffffffff16847ff2edcd12fc2744b151c0559a1ddd76bd48b854f3db099c6bc9a1209f796768e184604051611033919061157a565b60405180910390a4505050565b5f8282604051602001611054929190611e66565b60405160208183030381529060405280519060200120905092915050565b61271081565b60015f9054906101000a900473ffffffffffffffffffffffffffffffffffffffff1673ffffffffffffffffffffffffffffffffffffffff163373ffffffffffffffffffffffffffffffffffffffff1614611107576040517f08c379a00000000000000000000000000000000000000000000000000000000081526004016110fe90611826565b60405180910390fd5b5f73ffffffffffffffffffffffffffffffffffffffff168173ffffffffffffffffffffffffffffffffffffffff1603611175576040517f08c379a000000000000000000000000000000000000000000000000000000000815260040161116c90611ec8565b60405180910390fd5b805f5f6101000a81548173ffffffffffffffffffffffffffffffffffffffff021916908373ffffffffffffffffffffffffffffffffffffffff1602179055507f7dae230f18360d76a040c81f050aa14eb9d6dc7901b20fc5d855e2a20fe814d1816040516111e391906115a2565b60405180910390a150565b60015f9054906101000a900473ffffffffffffffffffffffffffffffffffffffff1673ffffffffffffffffffffffffffffffffffffffff163373ffffffffffffffffffffffffffffffffffffffff161461127d576040517f08c379a000000000000000000000000000000000000000000000000000000000815260040161127490611826565b60405180910390fd5b5f73ffffffffffffffffffffffffffffffffffffffff168173ffffffffffffffffffffffffffffffffffffffff16036112eb576040517f08c379a00000000000000000000000000000000000000000000000000000000081526004016112e290611ec8565b60405180910390fd5b8060015f6101000a81548173ffffffffffffffffffffffffffffffffffffffff021916908373ffffffffffffffffffffffffffffffffffffffff16021790555050565b6040518060c001604052805f73ffffffffffffffffffffffffffffffffffffffff1681526020015f73ffffffffffffffffffffffffffffffffffffffff1681526020015f81526020015f81526020015f151581526020015f151581525090565b5f5ffd5b5f5ffd5b5f819050919050565b6113a881611396565b81146113b2575f5ffd5b50565b5f813590506113c38161139f565b92915050565b5f602082840312156113de576113dd61138e565b5b5f6113eb848285016113b5565b91505092915050565b5f73ffffffffffffffffffffffffffffffffffffffff82169050919050565b5f61141d826113f4565b9050919050565b61142d81611413565b82525050565b5f819050919050565b61144581611433565b82525050565b5f8115159050919050565b61145f8161144b565b82525050565b60c082015f8201516114795f850182611424565b50602082015161148c6020850182611424565b50604082015161149f604085018261143c565b5060608201516114b2606085018261143c565b5060808201516114c56080850182611456565b5060a08201516114d860a0850182611456565b50505050565b5f60c0820190506114f15f830184611465565b92915050565b5f819050919050565b5f61151a611515611510846113f4565b6114f7565b6113f4565b9050919050565b5f61152b82611500565b9050919050565b5f61153c82611521565b9050919050565b61154c81611532565b82525050565b5f6020820190506115655f830184611543565b92915050565b61157481611433565b82525050565b5f60208201905061158d5f83018461156b565b92915050565b61159c81611413565b82525050565b5f6020820190506115b55f830184611593565b92915050565b6115c48161144b565b82525050565b5f60c0820190506115dd5f830189611593565b6115ea6020830188611593565b6115f7604083018761156b565b611604606083018661156b565b61161160808301856115bb565b61161e60a08301846115bb565b979650505050505050565b61163281611413565b811461163c575f5ffd5b50565b5f8135905061164d81611629565b92915050565b61165c81611433565b8114611666575f5ffd5b50565b5f8135905061167781611653565b92915050565b5f5f5f606084860312156116945761169361138e565b5b5f6116a1868287016113b5565b93505060206116b28682870161163f565b92505060406116c386828701611669565b9150509250925092565b5f5ffd5b5f5ffd5b5f5ffd5b5f5f83601f8401126116ee576116ed6116cd565b5b8235905067ffffffffffffffff81111561170b5761170a6116d1565b5b602083019150836001820283011115611727576117266116d5565b5b9250929050565b5f5f602083850312156117445761174361138e565b5b5f83013567ffffffffffffffff81111561176157611760611392565b5b61176d858286016116d9565b92509250509250929050565b61178281611396565b82525050565b5f60208201905061179b5f830184611779565b92915050565b5f602082840312156117b6576117b561138e565b5b5f6117c38482850161163f565b91505092915050565b5f82825260208201905092915050565b7f4e6f74206f776e657200000000000000000000000000000000000000000000005f82015250565b5f6118106009836117cc565b915061181b826117dc565b602082019050919050565b5f6020820190508181035f83015261183d81611804565b9050919050565b7f53657373696f6e206e6f7420666f756e640000000000000000000000000000005f82015250565b5f6118786011836117cc565b915061188382611844565b602082019050919050565b5f6020820190508181035f8301526118a58161186c565b9050919050565b7f416c726561647920736574746c656400000000000000000000000000000000005f82015250565b5f6118e0600f836117cc565b91506118eb826118ac565b602082019050919050565b5f6020820190508181035f83015261190d816118d4565b9050919050565b5f6040820190506119275f830185611593565b611934602083018461156b565b9392505050565b6119448161144b565b811461194e575f5ffd5b50565b5f8151905061195f8161193b565b92915050565b5f6020828403121561197a5761197961138e565b5b5f61198784828501611951565b91505092915050565b7f526566756e64207472616e73666572206661696c6564000000000000000000005f82015250565b5f6119c46016836117cc565b91506119cf82611990565b602082019050919050565b5f6020820190508181035f8301526119f1816119b8565b9050919050565b7f4e6f7420617574686f72697a65640000000000000000000000000000000000005f82015250565b5f611a2c600e836117cc565b9150611a37826119f8565b602082019050919050565b5f6020820190508181035f830152611a5981611a20565b9050919050565b7f4e487b71000000000000000000000000000000000000000000000000000000005f52601160045260245ffd5b5f611a9782611433565b9150611aa283611433565b9250828202611ab081611433565b91508282048414831517611ac757611ac6611a60565b5b5092915050565b7f4e487b71000000000000000000000000000000000000000000000000000000005f52601260045260245ffd5b5f611b0582611433565b9150611b1083611433565b925082611b2057611b1f611ace565b5b828204905092915050565b5f611b3582611433565b9150611b4083611433565b9250828203905081811115611b5857611b57611a60565b5b92915050565b7f4d656e746f72207472616e73666572206661696c6564000000000000000000005f82015250565b5f611b926016836117cc565b9150611b9d82611b5e565b602082019050919050565b5f6020820190508181035f830152611bbf81611b86565b9050919050565b7f466565207472616e73666572206661696c6564000000000000000000000000005f82015250565b5f611bfa6013836117cc565b9150611c0582611bc6565b602082019050919050565b5f6020820190508181035f830152611c2781611bee565b9050919050565b5f604082019050611c415f83018561156b565b611c4e602083018461156b565b9392505050565b7f53657373696f6e20616c726561647920657869737473000000000000000000005f82015250565b5f611c896016836117cc565b9150611c9482611c55565b602082019050919050565b5f6020820190508181035f830152611cb681611c7d565b9050919050565b7f496e76616c6964206d656e746f722061646472657373000000000000000000005f82015250565b5f611cf16016836117cc565b9150611cfc82611cbd565b602082019050919050565b5f6020820190508181035f830152611d1e81611ce5565b9050919050565b7f416d6f756e74206d757374206265203e203000000000000000000000000000005f82015250565b5f611d596012836117cc565b9150611d6482611d25565b602082019050919050565b5f6020820190508181035f830152611d8681611d4d565b9050919050565b5f606082019050611da05f830186611593565b611dad6020830185611593565b611dba604083018461156b565b949350505050565b7f55534443207472616e73666572206661696c65640000000000000000000000005f82015250565b5f611df66014836117cc565b9150611e0182611dc2565b602082019050919050565b5f6020820190508181035f830152611e2381611dea565b9050919050565b5f81905092915050565b828183375f83830152505050565b5f611e4d8385611e2a565b9350611e5a838584611e34565b82840190509392505050565b5f611e72828486611e42565b91508190509392505050565b7f496e76616c6964206164647265737300000000000000000000000000000000005f82015250565b5f611eb2600f836117cc565b9150611ebd82611e7e565b602082019050919050565b5f6020820190508181035f830152611edf81611ea6565b905091905056fea2646970667358221220bfcdafcdc12c94852416de772edf7bf51e37f020106136249fba7e4a2531710264736f6c63430008210033","linkReferences":{}},"methodIdentifiers":{"BPS_DENOMINATOR()":"e1a45218","PLATFORM_FEE_BPS()":"539aa77f","encodeSessionId(string)":"d651b5df","fundSession(bytes32,address,uint256)":"b1be3ed8","getSession(bytes32)":"39b240bd","owner()":"8da5cb5b","refundClient(bytes32)":"77d931fd","releasePayment(bytes32)":"7aa1ed58","sessions(bytes32)":"7dbd2832","setTreasury(address)":"f0f44260","transferOwnership(address)":"f2fde38b","treasury()":"61d027b3","usdc()":"3e413bee"},"id":23}